:020000040800F2
:10000000903000204102000897150008E91400080C
:100010002D150008631300085B480008000000006D
:10002000000000000000000000000000294400085B
:100030000D14000800000000DF1200084145000810
:100040005B0200085B0200085B0200085B0200081C
:100050005B0200085B0200085B0200085B0200080C
:100060005B0200085B0200085B0200085B020008FC
:100070005B0200085B0200085B0200085B020008EC
:100080005B0200085B0200085B0200085B020008DC
:100090005B0200085B0200085B0200085B020008CC
:1000A0005B0200085B0200085B0200085B020008BC
:1000B0005B0200085B0200085B0200085B020008AC
:1000C0005B0200085B0200085B0200085B0200089C
:1000D0005B020008354600085B0200085B0200086E
:1000E0005B0200085B0200085B0200085B0200087C
:1000F0005B0200085B0200085B0200085B0200086C
:100100005B0200085B0200085B0200085B0200085B
:100110005B0200085B0200085B0200085B0200084B
:100120005B0200085B0200085B0200085B0200083B
:100130005B0200085B0200085B0200085B0200082B
:100140005B0200085B0200085B0200085B0200081B
:100150005B0200085B0200085B0200085B0200080B
:100160005B0200085B0200085B0200085B020008FB
:100170005B0200085B0200085B0200085B020008EB
:100180005B0200085B02000800F002F800F049F88A
:100190000AA090E8000C82448344AAF10107DA45E2
:1001A00001D100F03EF8AFF2090EBAE80F0013F0EB
:1001B000010F18BFFB1A43F001031847E84E000077
:1001C000084F0000103A24BF78C878C1FAD8520707
:1001D00024BF30C830C144BF04680C6070470000C1
:1001E0000023002400250026103A28BF78C1FBD840
:1001F000520728BF30C148BF0B607047662904F022
:10020000FD85002070471FB504F0F3FD00F00AFBE8
:1002100004000020002104F05FFDE0601FBD10B568
:1002200010BD00F017FC1146FFF7EDFF04F07EFC57
:1002300000F035FC03B4FFF7F2FF03BC04F085FBCC
:100240000948804709480047FEE7FEE7FEE7FEE76A
:10025000FEE7FEE7FEE7FEE7FEE7FEE704480549A6
:10026000054A064B704700005D45000889010008FB
:10027000902A002090300020902C0020902C00200C
:1002800072B6704762B67047EFF3108072B670476F
:1002900080F31088704730BF704720BF7047B0FAB6
:1002A00080F0704790FAA0F0B0FA80F0704790FAB2
:1002B000A0F07047704700000FB4044910B503AABE
:1002C000029800F09DFA10BC5DF814FB18000020A5
:1002D0002DE9F0474FF0000A89460446C0F820A0F7
:1002E0002046E1688847002876D0252806D0D4E942
:1002F00001219047206A401C2062F1E7E168204616
:1003000000258847C4F81CA006460027C4F818A09A
:100310002A2E09D0304604F011FB38B304EB8708CD
:10032000303EC8F8186019E059F8041B204604EB69
:1003300087029161E1688847012F064618D1E0697C
:10034000002820DA25F020051DE0D8F8180000EB81
:10035000800006EB40003038C8F818002046E168FD
:100360008847064604F0EAFA0028EED1012F0AD0A9
:100370002E2E08D12046E16888477F1C0646022FB2
:1003800045F02005C4DBA069002803DA404245F0AF
:100390000105A061E80701D025F01005B6B1A6F16E
:1003A0004100192802D8203645F400654A463146F6
:1003B000204625604D46FFF721FF58B1012806D0A1
:1003C000ED1D25F0070000F1080989E704E005F1BB
:1003D000040985E730468AE7206ABDE8F087704760
:1003E00070477047704770472DE9FF4F0C461E4617
:1003F0004FF0FF378BB0D2E90001DDF860800A9042
:100400008A46C1F30A5505B93D46002108464FF01A
:100410000000BAF1000F00F4400005DA00EB8000A4
:100420004FF4400101EA50004FEA9059B9F1010F31
:1004300000DDB9460A9850EA4A000ED044F6105042
:10044000A5F2FF3545432F14B8F1000F1ED07542B9
:10045000291E1EDDC9F100021CE0B8F1010F4FF0AA
:10046000000001D0302103E0F24305E02154401C9C
:10047000B042FBDB30460022002121540B99C1F829
:100480000880C1E900200FB0BDE8F08FBD1B6D1CD6
:10049000DEE74A4600DA694206A800F065FA06ABD4
:1004A00093E8070003AB83E8070050460A9900F081
:1004B0003FFB8DE80700A0F500501F38009003981F
:1004C000002D09DD42F21F014A46084403A90390AA
:1004D000684600F09EFD08E0A0F500504A461F382F
:1004E00003A90390684600F0A8FD8DE8070000040A
:1004F000000C03D04FF0FF30410800E01046B8F187
:10050000000F03D00022009215461EE0751E05D490
:1005100000F08CF9303262556D1EF9D5B3460122D8
:10052000084302D000227F1C04E02078302801D14B
:1005300000227F1E002A099786D01DE0112D07DAC0
:1005400000F074F9303262556D1C50EA0102F5D1A9
:10055000084302D00098C8B10EE00021681E05E0F3
:10056000235C625C63542254401E491C8142F7DBC9
:10057000AB46A81B401E0990002004F80B000B9806
:10058000099AC0F80880C0E9002B7CE711264FF0DB
:10059000000859E72DE9F04F88460446D21D22F0A5
:1005A000070191B0D1E90001CDE90A0104F0AEF9EB
:1005B00002460B98C00F01D02D2007E0206881076C
:1005C00001D52B2002E0202101EAC000032A099076
:1005D00001D0072A05DB03464146204600F084F996
:1005E0000BE12078800601D5E06900E00620B8F133
:1005F000650F814606D0B8F1660F18D0B8F1670FC5
:1006000070D131E00020B9F1110F009001DB11230E
:1006100001E009F101030AAA01A90CA8FFF7E4FE11
:10062000DDE90C70002609F10105834647E0012051
:100630004B4600904FF000470AAA01A90CA8FFF70B
:10064000D3FEDDE90DB00C995D46002610B909F125
:1006500001000D18B9EB050003D4C0F1FF3609F114
:100660000105A5EB09002BE0B9F1010F01DA4FF00C
:1006700001090020B9F1110F0090484601DD112356
:1006800000E003460AAA01A90CA8FFF7ADFEDDE9C8
:100690000C704D4600268346207800070AD4AB45EF
:1006A00000DA5D4601A8012D04DD411911F8011C95
:1006B000302907D04F4502DA17F1040F04DA012080
:1006C00082460FE06D1EEEE7002F02DCED1B3E447C
:1006D00003E0781CA84200DD7D1CB81B00F1010A74
:1006E0004FF000472078000703D4AA4501DB4FF004
:1006F000FF3A0021B7F1004F0DF143088DF8431088
:1007000024D002202B23002F01DA7F422D230A213F
:10071000021EA0F1010000DC5FB197FBF1FC97FB2A
:10072000F1F201FB1C7C17460CF1300C08F801CDEE
:10073000EEE7A8F1010003702188090501D54521E4
:1007400000E06521A0F1010800F8011C09980FA93B
:10075000A1EB0807FF1D00B10120411901EBEA7070
:10076000A1693844081A401EA0612078C00602D44E
:100770002046AFF30080099828B1D4E901219047C1
:10078000206A401C20622078C00622D52046AFF3A4
:1007900000801EE0002E04DBB34502DD01A8805D71
:1007A00000E03020D4E901219047206A401C2062FB
:1007B000761CAAF101005FEA000A0AD100F032F8C3
:1007C000C0680168405CD4E901219047206A401C60
:1007D0002062281EA5F10105DCDC07E0D4E9012137
:1007E00018F8010B9047206A401C2062381EA7F1C0
:1007F0000107F3DC2046AFF30080032011B043E68D
:10080000074B70B50D467B4400F05BF80446284664
:1008100000F018F910B14FF0FF3070BD204670BDE8
:100820009342000000487047502A002030B5B0F1D4
:100830000A024FEA900E71F100034EEA817EB0EB9E
:100840000E0061EB91014FEA101E4EEA017E10EBA3
:100850000E0041EB11114FEA102E4EEA016E10EB23
:100860000E0041EB11214FEA104E4EEA014E10EB03
:100870000E0041EB1141401841F100014FEAD00058
:1008800040EA41704FEAD10110EB80054FEA810444
:1008900044EA907444EB01046D1944EB0404521BC8
:1008A000A3414FF0000348BF0A3200D530BD401CC1
:1008B00041F1000130BD000001694A1C0261087865
:1008C000704700B58FB0CDE9013100210591054990
:1008D0007944CDE9031011466846FFF7F9FC0FB0E3
:1008E00000BD0000E5FFFFFF2DE9F0411F46044673
:1008F00003260168072A01F4006004DB08B116A58D
:1009000005E016A503E008B115A500E015A521F046
:1009100010002060A069C01EA0610FB1401EA06140
:100920002046AFF300804FB1D4E90121384690470B
:10093000206A401C2062C01C206206E0206AFAE7A0
:10094000D4E9012115F8010B9047761EF8D2204614
:10095000AFF30080BDE8F0814E414E006E616E0045
:10096000494E4600696E66002DE9F04781461646FD
:100970008AB0334878440DC88DE80D00304878447B
:10098000801C03AC0DC884E80D0041F69B30084480
:10099000372190FBF1F290FBF1F5A5F1800501FB09
:1009A00012041B3C02D56442012000E00020DFF865
:1009B00090A080460027FA44AAF1BE0A0DE0E007A5
:1009C00009D03246684607EB47010AEB810100F087
:1009D00034FB8DE8070064107F1C002CEFD1184F0A
:1009E0007F44AC3F18E0E80714D007EB04100DF18A
:1009F000180A90E80E008AE80E00C068F04201D1A3
:100A000098190890324606A903A800F016FB03AB1C
:100A100083E807006D10641C002DE4D1324669465E
:100A2000B8F1000F03A802D000F0F3FA01E000F0E3
:100A300004FBC9E90001C9F808200AB0BDE8F08745
:100A400014470000007B00F08000704700487047AA
:100A5000302A00207546FFF7F9FFAE4605006946CB
:100A6000534620F00700854618B020B5FFF7F6FB87
:100A7000BDE820404FF000064FF000074FF000089F
:100A80004FF0000B21F00701AC46ACE8C009ACE820
:100A9000C009ACE8C009ACE8C0098D46704710B584
:100AA0000446AFF300802046BDE81040FFF7C2BB0C
:100AB0004FF0013C50F8042B51F8043B9A4221D1ED
:100AC000A2EB0C03934313EACC1317D150F8042B79
:100AD00051F8043B9A4215D1A2EB0C03934313EA5D
:100AE000CC130BD150F8042B51F8043B9A4209D196
:100AF000A2EB0C03934313EACC13DBD04FF00000BE
:100B0000704700BFD01A01BAB1FA81F101F01801A3
:100B100022FA01F0CB40C1F12001DBB2C0B2C01A11
:100B20002CFA01F3D11A914311EAC311E6D17047AF
:100B30005FEA400C08BF91F0000F4FEA8C234FEAA8
:100B4000C12243EA51514FEA1C5018BF00F5F04052
:100B50004FEA300018BF41F000415FEA6C5C00F0E2
:100B60002980BCF1FF3F08BF40F080407047130C64
:100B700006BF12044FF0100C4FF0000C130E04BF10
:100B800012020CF1080C130F04BF12010CF1040C3B
:100B9000930F04BF92000CF1020CD30F04BF52005C
:100BA0000CF1010C11464FF00002A0F11F00A0EB68
:100BB0000C00704711F0004F08BF704731F0004142
:100BC0003FF4D5AF0B0C06BF09044FF0100C4FF0EB
:100BD000000C0B0E04BF09020CF1080C0B0F04BF34
:100BE00009010CF1040C8B0F04BF89000CF1020CFD
:100BF000CB0F04BF49000CF1010CCCF12003A0EB9A
:100C00000C0022FA03F302FA0CF241EA030100F1AC
:100C10000100704720F07F4C80EA030023F07F47FB
:100C2000ACEB070303F57C5300F0004003F1FF0336
:100C30002DE980494FEA154B09B44FEA144325EAE0
:100C40000B4E24EA03480FF2042606EB132749084B
:100C50003E785FEA320203FB0667C7F5000707FB31
:100C600006F64FEA54374FEAD64606F1020607FB6E
:100C7000066CCCF1005C4FEA1C472CEA074C07FBE2
:100C800006F40CFB06F504EB15464FEA961634BF46
:100C900000204FF000404FEAD13706FB07FC4FEA37
:100CA0001C4C0CFB0BF7D21B03FB0CF761EB070191
:100CB0000CFB0EF7B0EB074072EB17420CFB08F78A
:100CC00034BFA2EB0742B2EB074261EB17414FEA98
:100CD0000C444FEA910706FB07FC4FEA1C4C0CFB47
:100CE0000BF7B0EBC74072EB573203FB0CF734BF86
:100CF000A2EBC742B2EBC74261EB57310CFB0EF7D8
:100D0000B0EBC70072EB57720CFB08F734BFA2EBD5
:100D1000C702B2EBC70261EB5771039F4FEA8161D3
:100D200041EA921104EBCC044FEAD1374FEA8262D8
:100D300006FB07FC42EA90124FEA80604FEA1C4C27
:100D40000CFB0BF7D21B03FB0CF761EB07010CFB51
:100D50000EF7B0EB074072EB17420CFB08F734BFFD
:100D6000A2EB0742B2EB074261EB17414FEA8C5509
:100D70004FEA910704EB9C2406FB07FC4FEA1C4C4E
:100D80000CFB0BF7B0EBC74072EB573203FB0CF7D1
:100D900034BFA2EBC742B2EBC74261EB57310CFB49
:100DA0000EF7B0EBC70072EB57720CFB08F734BFBD
:100DB000A2EBC702B2EBC70261EB577115EB4C25F2
:100DC0004FEA816141EA92114FEA82624FEAD137DC
:100DD00042EA901206FB07FC44F100044FEA8060EF
:100DE0004FEA1C4C0CFB0BF7D21B03FB0CF761EB1F
:100DF00007010CFB0EF7B0EB074072EB17420CFB40
:100E000008F734BFA2EB0742B2EB074261EB174190
:100E100015EB1C154FEA813141EA92414FEA8232CB
:100E200042EA90424FEA80304FEA0C7644F10004E7
:100E300048EA03434EEA0B484FF0000EB2EB080CB1
:100E400071EB030724BF624639464EEB0E0E4FF09E
:100E5000000B0018524149414BEB0B0BB2EB080C55
:100E600071EB03077BF1000B24BF624639464EEB62
:100E70000E0E4FF0000B0018524149414BEB0B0B8B
:100E8000B2EB080C71EB03077BF1000B24BF624649
:100E900039464EEB0E0E51EA020718BF46F0010626
:100EA00016EB0E7655F1000254F1000103D5BDE8B2
:100EB0008901BDE80088BDE88901BDE80048B61990
:100EC000524141EB0101A3F10103704780807F7E15
:100ED0007D7C7B7A797877767675747372717170B0
:100EE0006F6E6E6D6C6C6B6A6A6968686766666562
:100EF0006464636362616160605F5F5E5E5D5D5CF0
:100F00005C5B5B5A5A595958585757565655555560
:100F10005454535352525251515050504F4F4F4EC0
:100F20004E4D4D4D4C4C4C4B4B4B4A4A4A4949490E
:100F30004848484747474746464645454544444450
:100F4000444343434342424242414141002B26D461
:100F5000770021D01CB54FEA370703B44FF01000DB
:100F60004FF010014FF000000FBCBDE810400BF136
:100F7000010BBBF1010F08BF5FEA170722BF12F197
:100F8000010211F101014FF0004143F1000300F0B3
:100F9000004043EA00007047F9D35708DAE746EA11
:100FA000064613F1400F4FEA16461FDD13F1200FDE
:100FB000DFBF16430A46002120335B42C8D0C3F18D
:100FC000200746EA064602FA07F74FEA164646EABF
:100FD0000706C3F1200722FA03F201FA07F721FA04
:100FE00003F14FF0000342EA0702B1E746EA0206C6
:100FF00046EA06464FEA164646EA0106BCBF46EAFE
:101000000646360C4FF000034FF000024FF000018F
:101010009EE72DE9C048934630B491E8380007C8F0
:1010200031EA400C48BF34EA430C03D5FFF7F2FD28
:10103000FFF78CFFF0BCBDE800882DE9C04893465F
:1010400030B491E8380007C810F0804F08BF13F0A3
:10105000804F03D100F005F8FFF778FFF0BCBDE842
:10106000008820F07F4780EA030023F07F4C07EBE5
:101070000C03A3F57C5300F00040A3F1FE0392F0B3
:10108000000F00F0B38095F0000F00F077802DE99D
:1010900001494FEA11404FEA144621EA004800FB9B
:1010A00006FC24EA064708FB06F607FB08F800FBE7
:1010B00007F718EB06484CEB164C4FEA124B18EBAF
:1010C00007484FEA15464CEB174022EA0B4E0BFB44
:1010D00006FC25EA06470EFB06F607FB0EFE0BFB99
:1010E00007F71EEB064E4CEB164C4FF000061EEBBE
:1010F000074E4CEB174B18EB0B0840F1000018EBB8
:101100000E0B58EB000840F100008F1A4FF0000161
:101110003CBFC943661B14BFB5EB040C00213CBFA8
:10112000C943F61B4FEA17444EEA8E0E27EA0445E0
:101130004FEA1C4704FB07622CEA074C05FB07F744
:101140000CFB05F604FB0CFC16EB074642EB1742C2
:1011500016EB0C4642EB1C421BEB060658EB020258
:10116000414146EA9E0601D5BDE80189B6195241C2
:1011700041EB0101A3F10103BDE801894FEA1445E8
:101180004FEA114724EA054621EA074C05FB07F41C
:1011900006FB07F70CFB06F105FB0CFC11EB074106
:1011A00044EB17444FEA124711EB0C4144EB1C444B
:1011B00022EA074C05FB07F206FB07F70CFB06F6D5
:1011C00005FB0CFC16EB074642EB174216EB0C46F0
:1011D00042EB1C456A1854F1000148BF7047B6192C
:1011E000524141EB0101A3F10103704795F0000F5B
:1011F00037D04FEA11424FEA144721EA024624EA67
:10120000074C02FB07F106FB07F70CFB06F402FB99
:101210000CFC14EB074441EB17414FEA154714EB64
:101220000C4441EB1C4125EA074C02FB07F506FB89
:1012300007F70CFB06F602FB0CFC16EB074645EB2A
:10124000174516EB0C4645EB1C42121951F10001F3
:1012500048BF7047B619524141EB0101A3F10103A8
:1012600070474FEA14454FEA114724EA054621EA40
:10127000074C05FB07F106FB07F70CFB06F24FF0E6
:10128000000605FB0CFC12EB074241EB174112EB89
:101290000C4251EB1C4148BF7047921841EB0101D1
:1012A000A3F101037047000022484FF6FF7101705F
:1012B000002080F309882048016881F308881F48CE
:1012C0004FF08051016062B6FEE71C484FF080513C
:1012D0000160704719484FF080510160704772B645
:1012E000EFF3098050B11EF0100F08BF20ED108AF7
:1012F000203880E8F00F12490968086000B51148ED
:1013000080475DF804EB104810490A7802700C48D9
:101310000F490A680260106890E8F00F20301EF054
:10132000100F08BFB0EC108A80F309884EF0040E4D
:1013300062B6704722ED00E0D400002004ED00E02A
:10134000CC00002009260008620000206300002075
:10135000D00000201FB5684602F0F2FF019804B0EB
:1013600010BD00BFFEE710B500F020F800F01AF83D
:1013700010BD000010B5002400BF00BFFEF784FFC1
:10138000044600BF00BF1021054800F0D1F800BF9F
:1013900000BF2046FEF77CFF00BF00BF10BD00006D
:1013A000A401002010B5FFF7E5FF10BD10B5002027
:1013B0000249086000F00AF810BD00001C0000207F
:1013C00001490860704700001C00002010B5FFF7BD
:1013D000C1FF04460848006840F080700649086074
:1013E0000020064948600846006840F00100086097
:1013F0002046FFF7E5FF10BDFCED00E0001000E027
:101400000149486870470000001000E07047F0B5DF
:101410000A4600210023002400BF3DE0012505FA13
:1014200001F3156805EA03049C4234D105684F00B6
:101430000326BE40B543056015794E00B5400668E9
:10144000354305601579012D02D01579022D16D18D
:1014500085684F000326BE40B543856055794E0030
:10146000B540866835438560456801268E40B543A2
:101470004560456896798E40B6B235434560C5688B
:101480004F000326BE40B543C560D5794E00B54038
:10149000C6683543C560491C1029BFD3F0BDF0B5FF
:1014A000002300244D07ED0E02FA05F3CE1000F1E3
:1014B000200555F826504E07F70E0F26BE40B543BF
:1014C000CF1000F1200646F82750CE1000F120057D
:1014D00055F8265045EA0304CE1000F1200545F8E2
:1014E0002640F0BD0183704700BFFEE71CB5012117
:1014F000202002F005FF4FF4C060009001208DF81D
:10150000040000208DF8060003208DF8050001205E
:101510008DF8070069460448FFF779FF4FF4C06172
:101520000148FFF7DFFF1CBD0014024000BFFEE7CB
:1015300030B505460C4622460021284600F001F849
:1015400030BD2DE9F04105460B46944600270024A6
:1015500002E03F021F43641C042CFAD3604605F0EE
:101560000306294646B1344603E001F8013B401E1C
:10157000641C08B1042CF8D30A4601E080C2001FA5
:101580000428FBD2114602E001F8013B401E00286E
:10159000FAD1BDE8F081704770B5002100230F2219
:1015A000C4781CB3174C246804F4E064C4F5E06408
:1015B000C4F30721C1F10404E3B20A4144789C401A
:1015C000E1B28478144021430C07210E0E4C0578BB
:1015D0006155047804F01F050124AC4005786D11B5
:1015E000AD0005F1E025C5F8004109E0047804F0FC
:1015F0001F050124AC40054D0678761145F82640BC
:1016000070BD00000CED00E000E400E080E100E0CF
:1016100002490143024A1160704700000000FA05C8
:101620000CED00E07047000010B50348006810B1F1
:1016300001480068804710BD3400002070B50446A2
:1016400000F0AEF800204149087041490870414956
:1016500008704149086041490860414908704149A2
:101660000870414908704149086041490860414992
:1016700008604148006858B14048056845B13E4897
:10168000066803E0761E002028602D1D002EF9D18B
:1016900000203B4908603B4908603B4908603B49E2
:1016A00008603B4908603B4908603B4908603B498A
:1016B000087001F083FC01F0BDFC204601F01AFA2D
:1016C000208800B170BD204601F07AFA208800B170
:1016D000F8E7204601F080FA208800B1F2E72046C2
:1016E00001F0E2FA208800B1ECE7204601F096FC18
:1016F000208800B1E6E7204601F05CFD208800B1BB
:10170000E0E7204601F094FF208800B1DAE72046A8
:1017100001F01EFA208800B1D4E7204602F0FEFB5B
:10172000208800B1CEE7204601F0C6FE208800B137
:10173000C8E7204602F04EFC208800B1C2E701F065
:1017400003F9FFF76FFF00BFBCE70000480000206F
:10175000490000207C000020CC000020D0000020A8
:101760006200002063000020640000207000002060
:101770007400002078000020304E00082C4E000835
:10178000280000202C000020300000203400002021
:10179000380000203C00002040000020AA0000206B
:1017A000064800680649096800EB810005490860A1
:1017B0000846006820F00700086070472C4E0008BB
:1017C000304E0008D400002008480078012800D0DE
:1017D000704707480078FA2800DBF9E704480078EA
:1017E000401C0349087000BFF2E7000049000020D8
:1017F0004800002010B500242D480078012800D0B2
:1018000010BD00BFFEF740FD044600BF2948007828
:1018100028B900BF2046FEF73BFD00BFF0E7254892
:101820000078401E2349087008460078002805DD2E
:1018300000BF2046FEF72CFD00BFE1E71E48007800
:10184000002805DD00BF2046FEF722FD00BFD7E7D8
:1018500001F0A0FB194908700846007800EB400031
:10186000174951F8200017490860084600681649D2
:101870000968884205D100BF2046FEF709FD00BF78
:10188000BEE710480068D0F89000401C0D49096878
:10189000C1F890000D480068401C0C490860FFF733
:1018A00019FD00BF2046FEF7F3FC00BF00BFA7E70D
:1018B00049000020480000207C0000206300002038
:1018C000D4130020D0000020CC000020A000002075
:1018D00010B500241F480078002800DD10BD1E4808
:1018E0000078002800DDF9E700BFFEF7CDFC0446D4
:1018F00000BF01F04FFB194908700846007800EB63
:101900004000174951F82000164908600846006851
:1019100015490968884205D100BF2046FEF7B8FC8A
:1019200000BFDBE70F480068D0F89000401C0D496D
:101930000968C1F890000D480068401C0B49086018
:10194000FFF7C3FC00BF2046FEF7A2FC00BF00BFAC
:10195000C4E70000480000207C0000206300002055
:10196000D4130020D0000020CC000020A0000020D4
:1019700070B50446002518480078002803DD46F6B7
:101980006250208070BD15480078012803D045F6CC
:1019900089602080F6E712480078FA2803DB45F2D8
:1019A00009202080EEE700BF00BFFEF76DFC054672
:1019B00000BF00BF0A480078401C0949087001F0C8
:1019C000CDFB00BF00BF2846FEF762FC00BF00BF92
:1019D0000020208000BFD5E74800002049000020FB
:1019E0007C00002070B504460025204800780028BF
:1019F00003DD46F66550208070BD1D480078012843
:101A000003D045F689602080F6E71A48007818B9B7
:101A100046F664502080EFE700BF00BFFEF734FCBD
:101A2000054600BF00BF13480078401E11490870EA
:101A30000846007800280ADD00BF00BF2846FEF7F0
:101A400027FC00BF00BF46F663502080D4E701F0BA
:101A500093FB00BF00BF2846FEF71AFC00BF00BF83
:101A6000FFF736FF0020208000BFC5E748000020B8
:101A7000490000207C00002010B504461248007880
:101A8000E8B901F087FA1149087008460078104952
:101A900008700E48007800EB40000E4951F8200015
:101AA0000D490860084600680C4908600120064995
:101AB0000870FFF7F9FB43F69920208002E045F615
:101AC0008A60208010BD00004900002063000020D3
:101AD00062000020D4130020D0000020CC000020A1
:101AE0002DE9F04107464FF0000800BF00BFFEF7A8
:101AF000CBFB804600BF00BF00203B4908803B492C
:101B000008603B4908603B4908603B4908603B4925
:101B1000088100BF00BF4046FEF7BAFB00BF00BF10
:101B200000BF00BFFEF7B0FB804600BF00BF3448D7
:101B3000046800BF00BF4046FEF7AAFB00BF00BF1D
:101B400021E000BF00BFFEF79FFB804600BF00BF43
:101B500000207834E06320602063A061A082E082EE
:101B60006062A062FFF74CFC2062783C04F16406DE
:101B70000020B081D4F8BC4000BF00BF4046FEF753
:101B800087FB00BF00BF002CDBD100BF00BFFEF70A
:101B90007BFB804600BF00BF1A48056800BF00BF3E
:101BA0004046FEF775FB00BF00BF12E000BF00BF5C
:101BB000FEF76AFB804600BF00BF05F1200600204B
:101BC000B081AD6900BF00BF4046FEF761FB00BFBA
:101BD00000BF002DEAD102F0B5F802F0F7FA0020BC
:101BE0003880BDE8F08100008A0000209C000020C1
:101BF000B0000020BC00002074000020C8130020AA
:101C0000A400002068000020F8B5044600266946BC
:101C1000324800F0DDFCBDF8000018B1BDF800004E
:101C20002080F8BD6A460021022000F031FDBDF899
:101C3000000018B1BDF800002080F2E700BF00BF2F
:101C4000FEF722FB064600BF00BF002024490860C3
:101C500000BF00BF3046FEF71BFB00BF00BF0025E2
:101C60002048006820490968884205D91D48006855
:101C70001D490968B0FBF1F525B91A4800680A2129
:101C8000B0FBF1F56A460021284600F001FD6946E7
:101C9000124800F0B7F9BDF8000018B1BDF8000017
:101CA0002080BEE700BF00BFFEF7EEFA064600BF89
:101CB00000BF00200D490860094800680C49086011
:101CC00001200C49087000BF00BF3046FEF7E0FA63
:101CD00000BF00BF0020208000BFA2E75C180020EA
:101CE0008C000020604E0008484E00089C00002038
:101CF000900000209800002010B50348006810B143
:101D000001480068804710BD380000202DE9FF4FD2
:101D100085B004469046DDE91995159F139E002075
:101D200002905D480078002805DD47F24A102880BF
:101D300009B0BDE8F08F1CB947F2AD102880F7E775
:101D4000B8F1000F03D147F24F102880F0E71EB919
:101D500046F62F602880EBE750480068874203D2A0
:101D600046F630602880E3E71498B84203D346F67D
:101D700031602880DCE71298402803D346F27320B4
:101D80002880D5E712983F2806D14548844203D0E1
:101D900046F273202880CBE7204601F059FC002052
:101DA000288009F0010088B109F0020070B1B34643
:101DB0000020049007E00020CBF800000BF1040B9A
:101DC0000498401C04900498B842F4D3149806EB8D
:101DD00080000390CDE9007932464046039B089984
:101DE00000F0C8FA8346C4F828800898E062069894
:101DF0002062129884F83700C4F800B00398A060FD
:101E000017986065189860606662A763A4F83C90B4
:101E10004FF0000A08E0002104F17C0040F82A108D
:101E20000AF1010000F0FF0ABAF1000FF3D004F14B
:101E30006400169900F030FF204600F037F800BF2C
:101E400000BFFEF721FA029000BF00BF94F83700F0
:101E500001F0C0F8204601F035F9204601F0AEFB54
:101E600010480088401C0F4908800F48007801285E
:101E700007D000BF00BF0298FEF70AFA00BF00BFFC
:101E800056E700BF00BF0298FEF702FA00BF00BF8E
:101E9000FFF71EFD00BF4BE7480000205C4E000826
:101EA00004130020A80000204900002010B50446BB
:101EB0000348006818B1204601490968884710BDE9
:101EC0002800002070B504460D46002643480078DF
:101ED000002803DD47F24E10288070BD4048844240
:101EE00003D147F24C102880F7E77CB900BF00BF50
:101EF000FEF7CAF9064600BF00BF3A48046800BFB3
:101F000000BF3046FEF7C4F900BF00BF00BF00BFEE
:101F1000FEF7BAF9064600BF00BF94F8360008285D
:101F20002DD2DFE800F004090E10080A0F11204638
:101F300001F0E6F82EE02DE000BF204601F0E6FEBD
:101F400028E000BF00BF00BF204601F0DFFE94F88C
:101F50003400082810D2DFE800F004070508090A59
:101F60000B0600BF00BF08E000BF00BF00BF00BFFE
:101F7000204600F060FF00E000BF00BF0AE000BFA5
:101F800000BF3046FEF784F900BF00BF46F62D6063
:101F90002880A2E700BF04F1640000F05BFE204649
:101FA00000F024F8204601F021FB0F480088401E75
:101FB0000D490880204601F04BFBFF2084F83600D5
:101FC00000BF00BF3046FEF763F900BF00BF00202E
:101FD0002880FFF77DFC00BF7FE70000480000205D
:101FE00004130020CC000020A800002010B50446F7
:101FF0000348006818B1204601490968884710BDA8
:102000002C00002070B504460D46002615480078C7
:10201000002803DD47F25510288070BD00BF00BFC7
:10202000FEF732F9064600BF00BF1CB10E4800683B
:1020300084420AD100BF00BF3046FEF729F900BF35
:1020400000BF47F257102880E7E700BF00BF3046C7
:10205000FEF71EF900BF00BF2946204601F06AFBCB
:1020600000BFDAE748000020CC00002010B504468D
:102070000348006818B1204601490968884710BD27
:10208000300000202DE9F04780460E4614461D46DC
:102090004FF000096F480078002805DD46F2AE10C9
:1020A00028800020BDE8F0871EB1B6F5004F02D1B0
:1020B00000E000BF04E045F6256028800020F1E73D
:1020C00000BF0CB10020206000BF00BFFEF7DCF8AD
:1020D000814600BF00BF60480068406CA8B35E48FE
:1020E0000068406C401E5C49096848645A480068B2
:1020F000476C1CB158480068006C2060FFF780F9FD
:1021000055490968096C401A53490968C1F8A40087
:1021100051480068D0F8A8004F490968D1F8A410C8
:10212000884207D24C480068D0F8A4004A490968A0
:10213000C1F8A80000BF00BF4846FEF7A9F800BFDD
:1021400000BF002028803846ACE7FFE706F40040D7
:1021500058B100BF00BF4846FEF79AF800BF00BF65
:1021600046F2B010288000209CE73C480078002808
:102170000BDD00BF00BF4846FEF78AF800BF00BF76
:1021800046F66350288000208CE743460722002152
:10219000084600F095FD00BF00BF4846FEF778F8FE
:1021A00000BF00BFFFF794FB00BF00BFFEF76CF855
:1021B000814600BF00BF2848006890F8350020B174
:1021C000012826D0032834D12CE0FCB12248006835
:1021D000006C2060FFF714F91F490968096C401A68
:1021E0001D490968C1F8A4001B480068D0F8A80080
:1021F00019490968D1F8A410884207D21648006826
:10220000D0F8A40014490968C1F8A800002028806B
:1022100013E01CB110480068006C206046F2A91061
:1022200028800AE00CB10020206047F2D9202880E5
:1022300003E046F62E60288000BF00BF0648006815
:10224000476C00BF00BF4846FEF722F800BF00BF42
:10225000384627E748000020CC0000207C00002002
:102260002DE9F04106460D4614461DB1B5F5004F67
:1022700002D100E000BF05E045F625602080002087
:10228000BDE8F08100BFFFF7BBF880462346424619
:102290002946304601F0DAFA07463846F0E70000F2
:1022A0002DE9F04705460E4617461C464FF0000A3A
:1022B0002E480078002804DD47F259102080BDE840
:1022C000F0871EB946F2D5202080F8E71FB946F204
:1022D000D5202080F3E700BF00BFFDF7D5FF824681
:1022E00000BF00BF0DB922480568286868B900BF63
:1022F00000BF5046FDF7CCFF00BF00BF002030609C
:10230000386047F252102080D9E795F83C0000F081
:10231000010068B900BF00BF5046FDF7B9FF00BF1C
:1023200000BF00203060386047F254102080C6E7BC
:1023300000BF00BF5046FDF7ABFF00BF00BF4FF02E
:102340000008D5F8249003E009F1040908F1010818
:10235000D9F800000028F7D0C6F80080A86BA0EBE1
:10236000080038600020208000BFA8E74800002057
:10237000CC000020F0B50446DDE9055602EB8500EF
:1023800020F007004FF0000C071F3846C7F800C0C8
:102390004FF4805C071F3846C7F800C04FF0150C9B
:1023A000071F3846C7F800C04FF0140C071F384607
:1023B000C7F800C04FF0130C071F3846C7F800C01D
:1023C0004FF0120C071F3846C7F800C04FF0110C31
:1023D000071F3846C7F800C04FF0100C071F3846DB
:1023E000C7F800C04FF0090C071F3846C7F800C0F7
:1023F0004FF0080C071F3846C7F800C04FF0070C15
:10240000071F3846C7F800C04FF0060C071F3846B4
:10241000C7F800C04FF0050C071F3846C7F800C0CA
:102420004FF0040C071F3846C7F800C04FF0030CEC
:10243000071F3846C7F800C04FF0020C071F384688
:10244000C7F800C04FF0010C071F3846C7F800C09E
:102450004FF0000C071F3846C7F800C04FF0807CD3
:10246000071F3846C7F800C0071F38463C60DFF832
:102470005CC1071F3846C7F800C04FF0123C071F69
:102480003846C7F800C04FF0033C071F3846C7F86E
:1024900000C04FF0023C071F3846C7F800C0071FB6
:1024A00038463B60071F384639604FF0310C071F34
:1024B0003846C7F800C04FF0300C071F3846C7F841
:1024C00000C04FF0290C071F3846C7F800C04FF076
:1024D000280C071F3846C7F800C04FF0270C071F0D
:1024E0003846C7F800C04FF0260C071F3846C7F81B
:1024F00000C04FF0250C071F3846C7F800C04FF04A
:10250000240C071F3846C7F800C04FF0230C071FE4
:102510003846C7F800C04FF0220C071F3846C7F8EE
:1025200000C04FF0210C071F3846C7F800C04FF01D
:10253000200C071F3846C7F800C04FF0190C071FC2
:102540003846C7F800C04FF0180C071F3846C7F8C8
:1025500000C04FF0170C071F3846C7F800C04FF0F7
:10256000160C071F3846C7F800C04FF0113C071F74
:102570003846C7F800C04FF0103C071F3846C7F870
:1025800000C04FF0093C071F3846C7F800C04FF0A5
:10259000083C071F3846C7F800C04FF0073C071F2C
:1025A0003846C7F800C04FF0063C071F3846C7F84A
:1025B00000C04FF0053C071F3846C7F800C04FF079
:1025C000043C071F3846C7F800C0F0BD3538000886
:1025D00070B505460C460A480078002803DD47F22E
:1025E0005D10208070BD0748854203D147F25B1023
:1025F0002080F7E72146284601F00AFA00BFF1E7FC
:10260000480000200413002010B51D48006810B1D8
:102610001B4800688047FEF7F3FE0446194800682F
:1026200019490968884215D016480068D0F8980002
:10263000201A14490968C1F8940012480068D0F8BB
:102640009C0010490968D1F8941008440D490968A4
:10265000C1F89C000C480068C0F898400948006820
:10266000D0F8B40009490968884205D207480068D3
:1026700004490968C1F8B40000200449086010BD8D
:102680003C000020CC000020D0000020780000207A
:102690002DE9F04105460E46144600272A480078E9
:1026A000002804DD47F275202080BDE8F08127482E
:1026B0000078002803DD46F663502080F5E736B148
:1026C000022E05D0042E0AD0082E09D101E000BF49
:1026D00000BF1DB947F27E202080E6E704E003E05A
:1026E00045F625602080E0E700BF00BF00BFFDF792
:1026F000CBFD074600BF00BF01201549096881F8DE
:1027000036002346324629461148006801F020FA77
:10271000208838B100BF00BF3846FDF7B9FD00BFC3
:1027200000BFC2E70A48006800F0EAFC00BF00BF33
:102730003846FDF7ADFD00BF00BFFFF7C9F8002028
:10274000208000BFB1E70000480000207C0000208E
:10275000CC0000202DE9FF5F05460E46174698463F
:10276000DDE90EA4002000905D480078002804DD1B
:1027700047F275202080BDE8FF9F5A480078002866
:1027800003DD46F663502080F5E70AF00E0BBBF13F
:10279000000F09D0BBF1020F07D0BBF1040F10D01E
:1027A000BBF1080F0ED101E000BF00BFB8F1000F70
:1027B00006D12FB926B91DB947F27E202080DAE76D
:1027C00004E003E045F625602080D4E700BF2AF04E
:1027D0001E0008B1012000E00020039003980128AA
:1027E00003D145F625602080C5E7CAF300100290AA
:1027F0000298C0B9B8F57A7F03D347F27B202080D6
:10280000B9E73B2F03DD47F27A202080B3E73B2E68
:1028100003DD47F279202080ADE7632D12DD47F21A
:1028200078202080A7E742F20F70864203DD47F24E
:10283000792020809FE7B5F57A7F03DB47F2782087
:10284000208098E72848D0F800904FF4FA70B0FB49
:10285000F9F0404400FB09F04FF47A71B0FBF1F15C
:102860004FF461606843C6EB061200EB8200384407
:1028700000FB09100190019860B300BF00BFFDF795
:1028800003FD009000BF00BF01201849096881F8CE
:10289000360023465A4615480199006801F058F958
:1028A000208838B100BF00BF0098FDF7F1FC00BFE1
:1028B00000BF60E70D48006800F022FC00BF00BFC9
:1028C0000098FDF7E5FC00BF00BFFFF701F800200E
:1028D000208002E047F27E20208000BF4BE700000E
:1028E000480000207C000020604E0008CC00002042
:1028F00008B500F01FF86A4600210A48FFF7B0FC4F
:1029000009480068401E084908600846006838B950
:102910000648006808606A4600210548FFF7A0FCE9
:1029200008BD000098170020C8000020C400002047
:102930005C18002010B50348006810B10148006819
:10294000804710BD40000020244A2549254A264AD8
:102950002649274A2748284A284A294A294A2A48EC
:102960002A482B4A2B482C4A2C482D4A2D482E48C1
:102970002E482F482F4A304A304A3148314A324A8D
:102980003248334833483448344835483548364A65
:10299000364A374A374A384838483948394A3A4A2D
:1029A0003A4A3B483B483C483C493D483D4A3E4A00
:1029B0003E4A3F4A3F4A404A404A4148414A424AC9
:1029C00042484348434A444A4448454A454A46489F
:1029D0004648474800BF00BF00BF7047A44E0008EC
:1029E0000C500008A54E0008A64E0008A84E00088E
:1029F000AC4E0008B04E0008AD4E0008D84E00089E
:102A0000D94E0008DA4E0008DC4E0008DE4E000801
:102A1000E24E0008E44E0008044F0008064F00088C
:102A2000084F00080A4F00080C4F00080E4F00081E
:102A3000104F00083C4F00083D4F00083E4F000873
:102A4000404F0008424F0008434F0008444F000821
:102A5000464F0008484F00084A4F00084C4F0008F6
:102A60004E4F0008504F0008804F0008814F00086B
:102A7000824F0008834F0008844F0008864F0008EB
:102A8000884F0008B04F0008B14F0008B24F00084F
:102A9000B34F0008B44F0008B64F0008B84F000805
:102AA000BC4F0008BD4F0008BE4F0008BF4F0008D4
:102AB000C04F0008C14F0008C24F0008C34F0008B4
:102AC000C44F0008C64F0008C74F0008C84F000891
:102AD000CA4F0008CC4F0008CD4F0008D04F000867
:102AE000045000080550000806500008085000086F
:102AF0000A5000080021034A1160034A1180018036
:102B0000704700004C00002050000020002400BF4F
:102B100019E000BF00BFFDF7B7FB044600BF00BFD0
:102B200009480068401C0849086008480068401CC3
:102B30000649086000BF00BF2046FDF7A9FB00BFA3
:102B400000BFFEF771FDE4E7440000208C00002088
:102B500010B58AB0044600200E4908600B20002101
:102B60000591CDE90704069108460B4909680B4A0F
:102B700012680B4B1B68CDE90132CDE903103F20F1
:102B80000023084A08A100900C48FFF7BFF80AB0DC
:102B900010BD000044000020084E0008044E00084C
:102BA000004E00080D2B000875432F4F532D494947
:102BB000492049646C65205461736B000413002044
:102BC0000021034A1160034A118001807047000010
:102BD000540000205800002070B501461A4D2D68A1
:102BE0001DB945F21E750D8070BD184D2D881DB99B
:102BF00045F21D750D80F7E7134D28682A681032DD
:102C0000124D2D886D1EACB2002308E00260002535
:102C100045600581C560103010325D1CABB2A34227
:102C2000F4DB0025056045600581C560064D2D6813
:102C3000074E3560054D2D88B5800025F58035811E
:102C40000D8000BFD0E70000404E0008384E00085D
:102C5000C813002010B5014648894B89002B17DDA9
:102C60000A680C4B1B6813600A4C4B6823602346B0
:102C7000DB884C891B1B074CE38023469B884C89CF
:102C80002344044CA38000234B818B810B604B6059
:102C900010BD0000C8130020018100224281828102
:102CA00002604260704700000021034A1160034A3D
:102CB00011800180704700005C000020600000204F
:102CC0002DE9F04105460C4616461F46154800689A
:102CD00080F8346000201349096881F835003946CE
:102CE0001048006800F04EFC6CB104F10808EC607C
:102CF000012229460B48006800F016F82946404694
:102D000000F066F806E0002006490968C887054912
:102D10000968086303480168204600F019F8BDE817
:102D2000F0810000CC00002010B5C28701630023B1
:102D30000AE000244C600C600C614C610C83CC6197
:102D4000886020315C1CA3B29342F2DB10BD00000E
:102D500030B548B14568C1F8C05000F10804226898
:102D600093681D6AC56113E091F83450022D02D0BA
:102D7000072D08D103E007A5C1F8C05007E007A55B
:102D8000C1F8C05003E008A5C1F8C05000BF00BFA3
:102D900030BD00005461736B205100005461736BAF
:102DA0002053656D000000002000000030B507A52D
:102DB000C1F8C05000F1080422681AB193681D6A76
:102DC000C56101E001A5C56130BD00002000000023
:102DD000F0B58E6896F8375007893FB9012707810B
:102DE00000274F600F600160416023E007897F1C6E
:102DF0000781026806E0946894F83770AF4200DDFE
:102E000002E05268002AF6D100BF32B900274F60B5
:102E100043680B60596041600CE017682FB911607E
:102E200000270F604A60016004E013680B604A608D
:102E300059601160F0BD2DE9F0410446256BE68F25
:102E40000AE0D5F80C8008F108072946384600F05A
:102E50000AF82035701E86B2002EF2DC0020E087D2
:102E60002063BDE8F08110B50489012C03D1002452
:102E70000460446011E00C6824B94A6800241460BE
:102E800002600AE04C6824B90B6800245C6043606F
:102E900003E00B684A685A6013600489641E048169
:102EA00000244C600C6010BD2DE9F84306460C462A
:102EB00017469846089D94F83600082850D2DFE857
:102EC00000F00405080906072B2C00BF00BF00BF57
:102ED00047E000BF94F83400032807D143463A4640
:102EE00021463046009500F03FF803E0E765A4F87E
:102EF0006080256436B12046FFF79DFF21463046AD
:102F0000FFF754FF204600F007FC00203434A07087
:102F1000607004F8340924E000BF94F834000328FA
:102F200007D143463A4621463046009500F01CF84A
:102F300003E0E765A4F860802564204600F0E6FE23
:102F400036B12046FFF777FF21463046FFF72EFFC8
:102F500004203434A0700020607004F8340900E0CC
:102F600000BF00BFBDE8F883F0B50446059E086BBE
:102F7000CD8F0AE0C768A74204D104614261038390
:102F8000C66104E020306F1EBDB2002DF2DC00BF30
:102F9000F0BD000070B50025074C03E005F12000EE
:102FA000C5B2241D20680028F8D02068FDF777F905
:102FB0002844C5B2284670BD20000020002004E04F
:102FC0000021034A42F82010401C0228F8D3704721
:102FD0002000002030B5420900F01F030121C3F199
:102FE0001F04A140034C54F822400C43014D45F806
:102FF000224030BD2000002030B5420900F01F0300
:103000000121C3F11F04A140034C54F822408C431A
:10301000014D45F8224030BD200000200021034A28
:103020001160034A11800180704700006800002091
:103030006C00002000210AE001EB4102054B03EB8C
:10304000820000220281026042604A1CD1B2402903
:10305000F2D37047D413002010B5044694F837001B
:10306000FFF7B8FF94F8370005490978884203D183
:10307000204600F027F802E0204600F003F810BDDB
:103080006200002010B590F8373003EB43030C4C7E
:1030900004EB83010B893BB901230B810023C3603F
:1030A00003610860486009E00B895B1C0B810B68B9
:1030B000C360002303610A681061086010BD00004E
:1030C000D413002010B590F8373003EB43030B4CBA
:1030D00004EB83010B893BB901230B810023C360FF
:1030E00003610860486008E00B895B1C0B810023CA
:1030F000C3604A680261D060486010BDD4130020EC
:103100002DE9F041054695F8370000EB40001249E3
:1031100001EB80042F69EE6887B946B90020208151
:103120002060606095F83700FFF766FF0EE02089A9
:10313000401E208100203061266007E02089401E6B
:103140002081FE600EB9676000E0376100202861D1
:10315000E860BDE8F0810000D413002010B50448F9
:103160000078012803D1FEF74BF90249086010BD31
:103170007C0000207000002010B50A48007880B95B
:10318000FEF73EF908490968441A08480068A04259
:1031900001D20648046006480068A04201D20448F3
:1031A000046010BD7C00002070000020740000202E
:1031B000780000200021034A1160034A1180018039
:1031C00070470000800000208400002086B00020AE
:1031D000009000BF06E0A9490968480001AA002143
:1031E000FFF756FAA64800780128F4D101A8FEF7A7
:1031F00077FC0027A3480068A0490968884205D9E0
:10320000A04800689D490968B0FBF1F727B99D48BF
:1032100000680A21B0FBF1F72EE1FEF7F1F88046D5
:1032200000BF00BFFDF730F8009000BF00BF964818
:1032300000689649086000209349086000BF00BFFD
:103240000098FDF725F800BF00BF914800688F493E
:103250000968884248D98E4800688E49884205D25C
:1032600042F2107003900120029023E08848006829
:103270008949884205D24FF47A7003900A2002905F
:1032800018E0834800688549884203D2642003908F
:1032900002900FE07E4800688149884205D20A20EA
:1032A00003904FF47A70029004E00120039042F200
:1032B00010700290764801680298B1FBF0FA7349E9
:1032C000039809684843B0FBFAF042F21071081AFB
:1032D00074490880744800880988884208DA71486F
:1032E00000887149088003E042F210706D4908803F
:1032F000FEF702FD002500BF00BFFCF7C5FF0090F0
:1033000000BF00BF6948046800BF00BF0098FCF719
:10331000BFFF00BF00BF26E000BF00BFFCF7B4FF47
:10332000009000BF00BF54F89C0F6060002044F87C
:103330009C0900BF00BF0098FCF7AAFF00BF00BFB8
:10334000D4F8A000054400BF00BFFCF79DFF00902B
:1033500000BF00BFD4F8BC4000BF00BF0098FCF71E
:1033600097FF00BF00BF002CD6D145B34948854226
:1033700005D242F2107005904FF0010B1BE0464859
:10338000854205D24FF47A7005904FF00A0B12E097
:103390004248854203D26420059083460BE04048B2
:1033A000854204D20A2005904FF47A7B03E0012085
:1033B000059042F2107BB5FBFBF0049003E0002087
:1033C00005900120049000BF00BFFCF75DFF009056
:1033D00000BF00BF3548046800BF00BF0098FCF77D
:1033E00057FF00BF00BF2BE0D4F8A0000599484369
:1033F0000499B0FBF1F086B242F21070864200D917
:103400000646A4F88C60B4F88E00B04201DAA4F845
:103410008E6001AB04F1AC02111D2046FEF740FFA7
:1034200000BF00BFFCF730FF009000BF00BFD4F822
:10343000BC4000BF00BF0098FCF72AFF00BF00BFE0
:10344000002CD1D11A480078012805D10020184954
:10345000087001A8FEF744FBFDF7D2FFA0EB0809B6
:1034600014480068484502D21248C0F8009001AAEA
:1034700000213846FFF70CF9CFE60000484E00085F
:1034800098000020604E00088C000020940000206E
:1034900090000020801A060000093D00005A6202D8
:1034A0000084D717880000208A000020A400002094
:1034B000860000209C00002010B58AB00446002041
:1034C0001F4908601F4908601F4908601F490870AC
:1034D0001F4908701F48006820B946F62B602080FD
:1034E0000AB010BD1C4800681C490968884203D214
:1034F00046F62C602080F3E7194800783F2803D374
:1035000046F62A602080EBE7032000210591CDE9F3
:1035100007040691084610490968124A12680D4BC3
:103520001B68CDE90132CDE903100D480078002376
:103530000D4A0EA100901248FEF7E8FB00BFCFE74E
:103540008C000020940000209000002098000020B3
:10355000860000204C4E0008544E00085C4E0008C7
:10356000444E0008504E0008CD31000875432F4FDF
:10357000532D4949492053746174205461736B0081
:10358000D416002038B504460D4685B16B4602229C
:103590002946204600F0DCFABDF8000018B90320E7
:1035A00084F8360006E0022084F8360002E00220AB
:1035B00084F836002046FFF7A3FD38BD0021C0F88F
:1035C000B8100949096819B90021C0F8BC1007E012
:1035D00005490968C0F8BC1003490968C1F8B8007A
:1035E0000149086070470000A4000020D0F8B8200E
:1035F000D0F8BC104AB90D4B196011B10023C1F8C5
:10360000B8300023C0F8BC300FE029B90023C2F85D
:10361000BC30C0F8B83008E0C2F8BC10C1F8B8201F
:103620000023C0F8BC30C0F8B8307047A4000020B8
:103630000021044A1160044A1180044A116001808B
:1036400070470000A4000020A8000020A000002077
:1036500070B5044600202060A0606060E0602061DA
:103660006061A061E06129A0206200206062A06228
:10367000E0622064E065A4F86000002104F16400C9
:10368000FFF70AFB002044F8740F6060E060A0823E
:103690002061743C002506E0002104F17C0040F824
:1036A0002510681CC5B2002DF6D0002034342061EE
:1036B00020676067606084F85600E067A06720813B
:1036C0004FF0004060610020A061E0612062606214
:1036D000A4F85800A4F85A00E0652066FDF790FEB3
:1036E000064666660020A066C4F880002070607000
:1036F000A0704020E0700020C4F88400C4F8880066
:1037000004A0C4F88C00343C70BD00003F546173C9
:103710006B0000002000000010B50446204600F0B9
:10372000F5FA94F8360000F0040010B92046FFF7CF
:1037300093FC10BD70B504460D46002600BF00BFC7
:10374000FCF7A2FD064600BF00BF0020288094F8C9
:10375000360008285ED2DFE800F0040506071227CD
:10376000394B00BF00BF00BF00BF00BF3046FCF7B1
:103770008FFD00BF00BF47F25310288055E014F8BA
:103780008A0F401E207014F88A0928B9002084F896
:1037900036002046FFF7C0FF00BF00BF3046FCF7F1
:1037A00077FD00BF00BF40E014F88A0F401E207074
:1037B00014F88A0910B9012084F8360000BF00BF50
:1037C0003046FCF765FD00BF00BF2EE014F88A0FFD
:1037D000401E207014F88A0910B9022084F83600BF
:1037E00000BF00BF3046FCF753FD00BF00BF1CE028
:1037F00014F88A0F401E207014F88A0910B90320AB
:1038000084F8360000BF00BF3046FCF741FD00BF22
:1038100000BF0AE000BF00BF3046FCF739FD00BF23
:1038200000BF46F62D60288070BD00BFFEF750F83F
:1038300000BFF9E708B504480068FEF717FC6946C1
:103840000020FEF73FFB08BDCC0000202DE9F84327
:103850000446884617461D464FF0000900BF00BFCA
:10386000FCF712FD814600BF00BF0CB96748046831
:1038700027640020288094F83600082876D2DFE8F4
:1038800000F0040550510607525300BF00BF00BFAF
:103890000420012804D0022813D0042833D122E0C8
:1038A000606CFF280CD100BF00BF4846FCF7F0FC5D
:1038B00000BF00BF46F6C55028800020BDE8F88351
:1038C00022E04FF6FF71606C88420BD100BF00BF51
:1038D0004846FCF7DDFC00BF00BF46F6C550288017
:1038E0000020EBE710E0606C401C58B900BF00BF3F
:1038F0004846FCF7CDFC00BF00BF46F6C550288007
:103900000020DBE700E000BF00BF606C401C60648B
:10391000666C00BF00BF4846FCF7BAFC00BF00BFA2
:1039200071E000BF00BF00BF94F83400072815D134
:1039300000231A46214618460097FFF7B5FA666C31
:1039400000BF00BF4846FCF7A3FC00BF00BF08F45F
:10395000004000284AD1FDF7BBFF47E004200128C2
:1039600005D0022813D0042833D122E03FE0606C58
:10397000FF280BD100BF00BF4846FCF789FC00BF01
:1039800000BF46F6C5502880002097E722E04FF69A
:10399000FF71606C88420BD100BF00BF4846FCF746
:1039A00077FC00BF00BF46F6C5502880002085E7A1
:1039B00010E0606C401C58B900BF00BF4846FCF7DF
:1039C00067FC00BF00BF46F6C5502880002075E7A1
:1039D00000E000BF00BF606C401C6064666C00BF0C
:1039E00000BF4846FCF754FC00BF00BF0BE000BF1F
:1039F00000BF4846FCF74CFC00BF00BF46F62D60F8
:103A00002880002600BF00BF304657E7CC000020CA
:103A100070B504460D46002600BF00BFFCF734FC1D
:103A2000064600BF00BF0CB93D4804683C4800682A
:103A300084420ED13B48007800280ADD00BF00BF59
:103A40003046FCF725FC00BF00BF46F663502880D7
:103A500070BD0020288094F83600082850D2DFE896
:103A600000F0041523313F404142042084F8360021
:103A7000012084F88A002046FFF742FB00BF00BF08
:103A80003046FCF705FC00BF00BF44E0052084F889
:103A90003600012084F88A0000BF00BF3046FCF7E2
:103AA000F7FB00BF00BF36E0062084F83600012097
:103AB00084F88A0000BF00BF3046FCF7E9FB00BF76
:103AC00000BF28E0072084F83600012084F88A002F
:103AD00000BF00BF3046FCF7DBFB00BF00BF1AE0B1
:103AE00000BF00BF00BF94F88A00401C84F88A0021
:103AF00000BF00BF3046FCF7CBFB00BF00BF0AE0B1
:103B000000BF00BF3046FCF7C3FB00BF00BF46F656
:103B10002D6028809CE700BFFDF7DAFE00BF97E725
:103B2000CC0000207C000020002108E0064A02EBC7
:103B3000C100002202608280C2804A1C91B2034A06
:103B400012889142F2DB7047F40F0020784E000893
:103B50002DE9F04F0C4616461D46042E1ED1DFF807
:103B6000A091D9F80090A4EB0909A9F1010313F57C
:103B7000803F0DD94FF00009C0F84C90C0F850902C
:103B8000C0F81C9047F27E29A5F80090BDE8F08FA0
:103B9000C46403F10109C0F850903FE084B3082EDB
:103BA00025D1D0F8489009EB0407DFF85491D9F8F3
:103BB0000090A7EB0909A9F10103A34201D2C76450
:103BC00006E0DFF83C91D9F80090A144C0F84C9091
:103BD000DFF82CA1D0F84C90DAF800A0A9EB0A0984
:103BE000C0F85090D0F84C90C0F8489016E0DFF83C
:103BF0001091D9F80090A144C0F84C9004650DE0F4
:103C0000FFE74FF00009C0F84C90C0F85090C0F8A2
:103C10001C9047F27E29A5F80090B7E7DFF8E4A0F2
:103C2000BAF800A0D0F84C90B9FBFAFB0AFB1B993C
:103C30001FFA89F8DFF8D09009EBC802B2F80490B7
:103C4000B9F1000F0BD14FF00009C0F81490C0F883
:103C5000189010604FF00109A2F804903EE011683E
:103C600034E0DFF89CA0D1F84C90DAF800A0A9EB82
:103C70000A09C1F85090D0F85090D1F850A0D14521
:103C80000ED9D1F81490B9F1000F01D049691DE0A7
:103C90004FF00009C0F8149081614861002115E0DF
:103CA000D1F81890B9F1000F07D14FF00009C0F812
:103CB000189041618861106007E0D1F818C0C0F821
:103CC00018C04161CCF81400886100210029C8D1D6
:103CD000B2F8049009F10109A2F80490B2F8069034
:103CE000B2F804A0D14503DAB2F80490A2F8069025
:103CF000C2614FF00009A5F8009000BF46E7000040
:103D0000AC000020784E0008F40F002010B5C26906
:103D1000BAB1002404651468844205D14169116078
:103D200039B100248C6104E0816943694B6103B1BE
:103D30009961002444618461C461C4649488641EF0
:103D4000948010BD002006E0054A02EBC00100226D
:103D5000CA80421C90B2034A12889042F4DB70473A
:103D6000F40F0020784E00082DE9F05F4FF0000BB3
:103D700000BF00BFFCF788FA834600BF00BFFDF715
:103D80003FFB054656480068401C554908600846F8
:103D9000006854490988B0FBF1F201FB12001FFAD8
:103DA00080FA514800EBCA08D8F80040002782E0AA
:103DB000002C7FD0D4F8149094F83600082875D2DF
:103DC000DFE800F00408051B063D075000BF00BFF8
:103DD00000BF6CE04249E06C0968401A2065404928
:103DE000E06C0968884206D1002084F8360020463D
:103DF000FFF792FC00E0012759E03949E06C0968BF
:103E0000401A20653649E06C0968884215D10020C7
:103E1000E065A4F86000FDF7F3FA20642046FFF7A0
:103E20000AF82046FFF778FC00203434A070032005
:103E30006070002004F8340900E0012737E02849C9
:103E4000E06C0968401A20652549E06C09688842E1
:103E500006D1042084F836002046FFF757FF00E023
:103E6000012724E01E49E06C0968401A20651C49BE
:103E7000E06C0968884217D10020E065A4F8600072
:103E8000FDF7BEFA20642046FEF7D5FF2046FFF777
:103E90003DFF04203434A07003206070002004F83B
:103EA000340902E006E001E0012700E000BF00BFA6
:103EB0004C4600E00127002F3FF47AAFFDF7A0FA4F
:103EC000461B0A480068B04201D20848066000BF9D
:103ED00000BF5846FCF7DCF900BF00BFBDE8F09F0B
:103EE000AC000020784E0008F40F0020B000002045
:103EF0001CB500BF0EE001AB6A4600210846FEF784
:103F0000C1F8BDF8040028B903480078012801D1A0
:103F1000FFF72AFFEFE700004900002010B58AB044
:103F2000044600201D4908601D490860FFF7FCFD9C
:103F30001C48006820B947F2122020800AB010BD4A
:103F40001948006819490968884203D247F21320CA
:103F50002080F3E7164800783F2803D347F211206A
:103F60002080EBE70B20002105910A46CDE90704EC
:103F700006910D4800680F4909680A4B1B68CDE996
:103F80000131CDE903020A48007800230A4A0BA157
:103F900000900F48FDF7BAFE00BFCFE7AC0000204D
:103FA000B0000020684E0008704E00085C4E00080B
:103FB000644E00086C4E0008F13E000875432F4F18
:103FC000532D494949205469636B205461736B0038
:103FD0009817002070B58AB0044600203149086067
:103FE0003148006840B1314800682F490968B0FB8A
:103FF000F1F02F49086006E02C4800680A21B0FB68
:10400000F1F02B4908602A4800682A49086000201E
:104010002949086029490860002508E0284800EB84
:10402000C5060020B080F0803060681C85B225484D
:1040300000888542F2DB2448006820B947F2473007
:1040400020800AB070BD2148006821490968884273
:1040500003D247F248302080F3E71E4800783F281B
:1040600003D347F246302080EBE70B200021059177
:10407000CDE907040691084614490968164A1268F2
:10408000114B1B68CDE90132CDE9031011480078CE
:104090000023124A12A100901748FDF737FE00BF17
:1040A000CFE70000B4000020844E0008604E0008F6
:1040B000C4000020C8000020C0000020BC00002078
:1040C0007C120020984E0008884E0008904E000890
:1040D0005C4E0008804E00088C4E0008F14100083C
:1040E00075432F4F532D4949492054696D657220FE
:1040F0005461736B000000005C180020F0B50C46A2
:10410000022680F82A60012C05D12D4F466A3F68AF
:104110003E4486610CE0066A2EB9294F466A3F6824
:104120003E44866104E0264F066A3F683E4486614D
:10413000244F3F888669B6FBF7FC07FB1C66B5B2C7
:10414000214E06EBC502166836B9002606614661A7
:104150001060012696802CE0194F86693F68F61B97
:10416000C661116820E0164F8E693F68F61BCE616C
:10417000C669CF69BE4209D90E690EB1096913E05B
:10418000002606614161086100210DE04E692EB9EB
:104190000026466101614861106004E04B6943619B
:1041A00001611861486100210029DCD19688761CE4
:1041B0009680D6889788BE4201DA9688D680F0BD70
:1041C000C0000020984E00087C120020002006E06D
:1041D000054A02EBC0010022CA80421C90B2034A89
:1041E00012889042F4DB70477C120020984E000841
:1041F0001CB500BF53E001AB6A4600210846FDF73D
:1042000041FF01A8FDF7B4FBFDF7FAF80646244884
:104210000068401C22490860084600682149098856
:10422000B0FBF1F201FB12001FFA80FA1E4800EB0E
:10423000CA08D8F800404FF0000B21E0F4B1D4F8E0
:1042400010901749A0690968884214D1204600F0EF
:104250002FF8208D022804D101212046FFF74EFFC0
:1042600002E0032084F82A00A56815B12046E16821
:10427000A8474C4604E04FF0010B01E04FF0010B62
:10428000BBF1000FDAD0FDF7BBF8871B01A8FDF7E3
:10429000A9FB06480068B84201D204480760AAE7B3
:1042A000C0000020984E00087C120020BC000020B6
:1042B000F0B5114E36888569B5FBF6F706FB175544
:1042C000ACB20E4D05EBC4021568854205D10169FB
:1042D000116039B100254D6104E0416903690B614A
:1042E00003B15961012580F82A5000250561456117
:1042F00095886D1E9580F0BD984E00087C120020B8
:1043000029B1064A12680243044B1A6004E0034ACA
:1043100012688243014B1A60704700003038024037
:1043200029B1064A12680243044B1A6004E0034AAA
:1043300012688243014B1A60704700004438024003
:10434000F0B5002100220024022500260223324F6E
:104350003F6807F00C0121B1042905D0082937D1A5
:1043600005E02E4F076036E02D4F076033E02A4FFF
:104370003F1F3F68C7F38056274F3F1F3F6807F036
:104380003F036EB1264FB7FBF3F7DFF88CC0ACF1FB
:10439000040CDCF800C0CCF3881C07FB0CF40CE028
:1043A0001E4FB7FBF3F7DFF870C0ACF1040CDCF87C
:1043B00000C0CCF3881C07FB0CF4174F3F1F3F686D
:1043C000C7F301477F1C7D00B4FBF5F7076002E0EF
:1043D000124F076000BF00BF0F4F3F6807F0F001AA
:1043E0000909104F7A5C0768D74047600A4F3F6859
:1043F00007F4E051890A0B4F7A5C4768D740876021
:10440000054F3F6807F46041490B064F7A5C4768E7
:10441000D740C760F0BD0000083802400024F40017
:1044200000127A0000000020704700000CB5002048
:10443000019000903448006840F4803032490860B0
:1044400000BF3148006800F4003000900198401C23
:104450000190009818B90198B0F5A04FF1D12A4801
:10446000006800F4003010B10120009001E000204D
:1044700000900098012846D123484030006840F061
:1044800080502149403108602048006840F4404095
:104490001E4908601C48083000681B490831086044
:1044A0000846006840F4004008600846006840F490
:1044B000A05008601648091F0860081F006840F0F7
:1044C0008070091F086000BF0F48006800F000708E
:1044D0000028F9D040F205700E4908600A480830FB
:1044E000006820F0030008490831086008460068A9
:1044F00040F00200086000BF03480830006800F088
:104500000C000828F8D10CBD0038024000700040B3
:1045100008544007003C0240042808D14FF0E02135
:10452000096941F004014FF0E022116107E04FF00A
:10453000E021096921F004014FF0E0221161704788
:1045400010B505480078012805D1FDF73DF9FEF7C3
:10455000CFF9FDF74FF910BD4900002010B51548FF
:10456000006840F47000134908601348006840F088
:1045700001001149086000200F49083108600E4809
:1045800000680E4908400C4908600D48091D086084
:10459000081F006820F48020091F086000200649D9
:1045A0000C310860FFF742FF4FF00060014980398D
:1045B000086010BD88ED00E000380240FFFFF6FE05
:1045C0001030002470B504466FF00400FFF7A4FF1C
:1045D0002046E11704EB5171C1F3C701114A117074
:1045E000E11704EB5171CD100F4800680F49B1FB82
:1045F000F0F045430C4800684FF47A71B1FBF0F0DD
:104600000B4908804FF0E020006940F002004FF0B5
:10461000E021086108464561006940F00100086139
:1046200070BD000010000020604E000840420F00E6
:104630001200002010B5FDF7C7F840F225511E48C2
:1046400000F04CF810B31C4800F002F9C4B21B484B
:10465000008800F40040C8B91848008800F4804081
:1046600060B10A2C03D000201449088020E01348D0
:10467000008840F400401149088019E00D2C06D153
:104680000E48008840F480400C49088010E00B4838
:104690000088C0F30D000A490C5408480088401CEB
:1046A0000649088008460088C72801DD00200880E8
:1046B000FDF7A0F810BD000000100140140000201C
:1046C000DC00002021B1828942F40052828104E0A2
:1046D00082894DF6FF731A408281704770B5024699
:1046E000002400230025002040F66A16B14200D1C4
:1046F00000BFC1F3421501F01F03012606FA03F3C0
:10470000012D02D19689334006E0022D02D1168A8E
:10471000334001E0968A33400C12012606FA04F475
:104720001688344013B10CB1012000E0002070BDA8
:10473000F0B50346002400260025002040F66A1745
:10474000B94200D100BF1846C1F3421401F01F0660
:10475000012707FA06F5012C01D10C3004E0022CE8
:1047600001D1103000E014301AB107682F43076000
:1047700002E00768AF430760F0BD00002DE9FF4786
:1047800005460E460024A14600BFA046B08900B1F0
:1047900000BF2C8A24F44054F08804432C82AC8956
:1047A00041F20C608443B088318908437189084321
:1047B0000443AC81AC8A24F44074B0890443AC82D5
:1047C0006846FFF7BDFD2048854202D01F4885425C
:1047D00002D1DDF80C9001E0DDF80890A88900F422
:1047E000004040B109EBC90000EB091031684900F5
:1047F000B0FBF1F707E009EBC90000EB09103168E5
:104800008900B0FBF1F76420B7FBF0F00401200948
:10481000642101FB1078A88900F4004040B13220E7
:1048200000EBC800B0FBF1F000F00700044308E023
:10483000322000EB08106421B0FBF1F000F00F0013
:1048400004432C81BDE8FF870010014000140140A3
:1048500001468888C0F30800704700BFFEE70000EB
:1048600010B588B0044601210846FFF749FD012133
:104870001020FFF755FD072209212248FCF70FFE03
:1048800007220A211F48FCF70AFE4FF4C060069079
:1048900002208DF81C008DF81D0000208DF81E00F0
:1048A00001208DF81F0006A91648FCF7B0FD029400
:1048B0000020ADF80C00ADF80E00ADF81000ADF81A
:1048C00014000C20ADF8120002A90F48FFF756FFA4
:1048D00001210D48FFF7F6FE012240F225510A485A
:1048E000FFF726FF25208DF8040003208DF8050032
:1048F0008DF8060001208DF8070001A8FCF74CFE9A
:1049000008B010BD000002400010014003B401983F
:104910004100009850EAC12018BF04204A0D18BF7A
:1049200040F0010040F2FF72B2EB515F08BF40F06F
:104930000200012808BF052002B0704730380A285D
:1049400001D20120704700207047014600BF704728
:1049500070B504460F480078A0B10F48007888B9B8
:104960000E480088844206DB0C48008894FBF0F572
:10497000284600F01FF80948008894FBF0F100FB7E
:10498000114084B24FF47A7104FB01F000F01AF880
:1049900070BD0000490000204800002012000020E7
:1049A00008B56846FCF7E4FF08BD08B56846FDF7A2
:1049B00019F808BD38B504466A4608212046FDF7B7
:1049C00067FE38BD2DE9F047074600264FF0E0208E
:1049D000D0F814901048007807FB00F8FFF7E0FFCC
:1049E0004FF0E020856911E04FF0E0208469AC428F
:1049F0000CD0AC4202D2281B064403E0A9EB040011
:104A0000284406442546464500D300E0ECE700BFB5
:104A1000FFF7CBFFBDE8F087100000202DED028BE3
:104A2000002425E0134890ED000ADFED130A30EE74
:104A3000200A80ED000A00BF00BFFBF725FC0446FA
:104A400000BF00BF0B48006800F062F941EC180B92
:104A500053EC182B09A0FBF72FFC00BF00BF20462A
:104A6000FBF716FC00BF00BF4FF4FA70FFF770FFB2
:104A7000D8E70000D80000200AD7233C666C6F619D
:104A8000745F6E756D27732076616C756520697330
:104A9000203A20252E34660D0A00000000BF054A8A
:104AA000128802F04002002AF9D0C2B2014B9A806B
:104AB00070470000001001400EB500BF19E0002053
:104AC0000C49086002A80021C8230A46CDE900105D
:104AD0000846FDF73FFE01200749C1F8A40202A8DD
:104AE00000214FF4FA730A46CDE900100846FDF79D
:104AF00031FEE4E7A4824242008042420EB500BF8C
:104B00000FE008480068C0430749C1F8A80202A89E
:104B100000214FF4FA730A46CDE900100846FDF76C
:104B200019FEEEE7A8824242008042428AB0002489
:104B3000A820FFF747FD4FF4A060FCF769FD4FF494
:104B4000E130FFF78DFEFCF7D1FC09A8FCF776FDFC
:104B500000BF00BFFBF798FB044600BF00BF09A8D9
:104B6000032100220592CDE90621089010464FF45A
:104B7000007133220C4BCDE90132CDE90310032043
:104B800000230A4A0AA100900C48FDF7BFF800BFB5
:104B900000BF2046FBF77CFB00BF00BF09A8FCF765
:104BA0006BFF00BFFEE70000E4190020C14B0008C6
:104BB0007374617274207461736B0000201900209B
:104BC00030B58BB00446002500BFFCF7CCFB0AA82B
:104BD000FDF71AF800BF00BFFBF756FB054600BF04
:104BE00000BF0AA8032100220592CDE90621089002
:104BF000104680210C22244BCDE90132CDE903106F
:104C000004200023214A22A100902448FDF77EF8C9
:104C10000AA8032100220592CDE90621089010463A
:104C200080210C221E4BCDE90132CDE90310052075
:104C300000231C4A1CA100901E48FDF767F80AA833
:104C4000032100220592CDE906210890104680211B
:104C50000C22194BCDE90132CDE9031006200023C7
:104C6000164A17A100901A48FDF750F80AA91948EA
:104C7000FEF7CEFE00BF00BF2846FBF709FB00BFD2
:104C800000BF0BB030BD0000A8220020B94A0008C8
:104C9000445330207461736B00000000E421002055
:104CA0006C250020FD4A0008445331207461736B69
:104CB00000000000A8240020302800201D4A000821
:104CC000666C6F61742074657374207461736B001B
:104CD0006C2700202019002010B500290AD0087880
:104CE000002807D005487844FBF7E2FE002801D0F1
:104CF000002010BD0248784410BD0000DE03000013
:104D0000D60300000808A0F500114FEA31017047F2
:104D100043004FEAD30C4FEA3C0C43401FBF40070F
:104D20000CF1605113F0FE4F70471CF0006F03D17F
:104D300000200CF0004170470CF0004343EA507033
:104D400010B540EACC0000F00EF800BF0000009261
:104D50004FEA0001FFF7D6BF4FF000414FF00000CF
:104D6000A1F5002170470EF1020E2EF0030E5EF841
:104D7000044B244204D44FEA4102B2F17F4F11D8D0
:104D80004FEA4003B3F17F4F0CD80ED14FEAD07CED
:104D9000B2F17F4F0CEB4C0C0CF1020C08BF4CEB4A
:104DA000D17C04E04FF0080C01E04FEAD17C0CEB21
:104DB0004C0324FA03F404F00704B4F1040C06D203
:104DC0000EEB840CBDE810404CF0010C6047DFE8AE
:104DD0000CF0070802024FF00040A0F5800010BD63
:104DE0000846420018BFD2F1807288BF00F0004030
:104DF00010BD4FF04070E1EE100A7047FBF7CABBE0
:104E0000B40100200C00000080000000000200003F
:104E10000000000000000000000000000000000092
:104E2000000000000000000000000000B4030020AB
:104E30008000000000020000640000004006000046
:104E4000B40500203E0000000A000000F40B002022
:104E50000C00000080000000000200004000000084
:104E6000C800000001000000F40D00200C0000004C
:104E70008000000000020000110000008800000017
:104E800002000000640000007C1000200C00000004
:104E900080000000000200001100000088000000F7
:104EA0005011000001010100785634120101000088
:104EB00000000000000000000000000000000000F2
:104EC00000000000000000000000000000000000E2
:104ED00000000000000000000101010028000400A3
:104EE00000000000000000000000000000000000C2
:104EF00000000000000000000000000000000000B2
:104F00000000000001002000010010000C00100053
:104F10000000000000000000000000000000000091
:104F20000000000000000000000000000000000081
:104F3000000000000000000000000000010101006E
:104F40002C00010020000C0020004000080004009C
:104F50000000000000000000000000000000000051
:104F60000000000000000000000000000000000041
:104F70000000000000000000000000000000000031
:104F800001010101300000000000000000000000ED
:104F90000000000000000000000000000000000011
:104FA0000000000000000000000000000000000001
:104FB0000101010128000C000003000004010101AF
:104FC0000101010101000101C4000800010100000C
:104FD00000000000000000000000000000000000D1
:104FE00000000000000000000000000000000000C1
:104FF00000000000000000000000000000000000B1
:10500000000000000101340008005D76BB060000CE
:1050100002400000000000A0000000000540000069
:10502000000000C8000000000C4000000000409C90
:1050300000000000194000000020BCBE000000007D
:1050400034400000BFC91B8E00000004B5400000C2
:10505000504BCFD06607E2CF010000006C4100004A
:105060003E8251AADFEEA73401000000D9420000C1
:10507000DCB5A0E23A301F97FFFFFFFFB445000008
:10508000FD25A0C8E9A3C14FFFFFFFFFFF3F0000C0
:105090000000008000000000FF3F000000000080D2
:1050A00000000000E050000800000020DC000000CC
:1050B000C4010008BC510008DC000020B42F00002F
:1050C000E00100081C00000043000000F8FFFFFFA3
:1050D0000C0000000E0000000F0000002E00000079
:1050E000000000000102030401020304060708098E
:1050F00000000000000000000000000000000000B0
:10510000000000000000000000000000000000009F
:10511000000000000000000000000000000000008F
:10512000000000000000000000000000000000007F
:10513000000000000000000000000000000000006F
:10514000000000000000000000000000000000005F
:10515000000000000000000000000000000000004F
:10516000000000000000000000000000000000003F
:10517000000000000000000000000000000000002F
:10518000000000000000000000000000000000001F
:10519000000000000000000000000000000000000F
:1051A00000000000000000000000000000000000FF
:0C51B00000000000000000000AD7233CB3
:040000050800018965
:00000001FF
